:0400000002001932AF
:03000B000203F2FB
:0300130002041DC7
:0300720002001673
:0300160002007570
:200075001200801200FB12010780FE90DF047404F090DF03E4F090DF077406F090DF097447
:2000950010F090DF0A74CEF090DF0B74C4F090DF0C74F5F090DF0D7483F090DF0E7403F0E3
:2000B50090DF117415F090DF147418F090DF1514F090DF1C74E9F090DF1D742AF090DF1E2C
:2000D500E4F090DF1F741FF090DF247431F090DF257409F090DF2E7460F090DF31C4F090B8
:2000F500DF027402F02253C6BFAEC67F00EE20E6F82275E10475E101C28922858208858374
:200115000985F00A90011A120CB5AB82AC838B0B8C0C750D00850B82850C83850DF074FE9E
:20013500120C697408250BF8E4350CF9AF0D74022508FC74013509FDAE0A8C1C8D1D8E1EA0
:20015500751F07752000888289838FF0120C147401250BFDE4350CFEAF0D74FB2508FAE498
:200175003509FBAC0A8A1C8B1D8C1E751F077520008D828E838FF0120C14740F250BFDE4EE
:20019500350CFEAF0D8D828E838FF07403120C697410250BFDE4350CFEAF0D8D828E838F73
:2001B500F074F0120C697411250BFDE4350CFEAF0D8D828E838FF0E4120C697412250BFD01
:2001D500E4350CFEAF0D74092508FA74013509FBAC0A8A828B838CF0120DDA8D828E838FE5
:2001F500F0120C697413250BFDE4350CFEAF0D740A2508FA74013509FBAC0A8A828B838C31
:20021500F0120DDA8D828E838FF0120C697414250BFDE4350CFEAF0D8D828E838FF074FE15
:20023500120C697415250BFDE4350CFEAF0DAA08AB09AC0A8A1C8B1D8C1E751FFB75200055
:200255008D828E838FF0120C147410250BFD7401350CFEAF0D8D828E838FF074F0120C690D
:200275007411250BFD7401350CFEAF0D740B2508FA74013509FBAC0A8A1C8B1D8C1E751FB1
:20029500087520008D828E838FF0120C147419250BFD7401350CFEAF0D8D828E838FF0749E
:2002B500FE120C69850B82850C83850DF02285820E85830F85F010900113120CB5AB82ACD9
:2002D500838B118C12751300A811A912AC137415250EFAE4350FFBAF108A1C8B1D8F1E7589
:2002F5001FFB752000888289838CF0120C1474FB2511FDE43512FEAF137401250EFAE4352E
:200315000FFBAC108A1C8B1D8C1E751F077520008D828E838FF0120C1474022511FD7401EB
:200335003512FEAF137408250EFAE4350FFBAC108A1C8B1D8C1E751F077520008D828E83D1
:200355008FF0120C1474092511FD74013512FEAF137412250EFAE4350FFBAC108A828B83FF
:200375008CF0120DDA8D828E838FF0120C69740A2511FD74013512FEAF137413250EFAE408
:20039500350FFBAC108A828B838CF0120DDA8D828E838FF0120C69740B2511FD740135122A
:2003B500FEAF137411250EFA7401350FFBAC108A1C8B1D8C1E751F087520008D828E838F6E
:2003D500F0120C14AD0EAE0FAF108D828E838FF0120B148511828512838513F022C0E0C0A3
:2003F50007C006C0D075D00053C0FEAED17F00EE30E00C53D1FEAED67F004306018ED6D08A
:20041500D0D006D007D0E032C0E0C082C083C007C006C0D075D00053C0FEAED17F00EE30B4
:20043500E12153D1FDAED67F004306028ED690F237E020E00890F113E0F5C1800690F113ED
:10045500E0F5F9D0D0D006D007D083D082D0E032F5
:020DFA000004F3
:20046500858225AC1CAD1DAE1E74022CF9E43DFA8E03AF218F0089828A838BF0E8120C6945
:2004850074032CFAE43DFB8E07A9208A828B838FF0E9120C698C828D838EF074DF120C69C1
:2004A50074012CFAE43DFB8E07E525700578C1F9800478F979008A828B838FF0E8120C69C4
:2004C50074042CFAE43DFB8E07A92453011F8A828B838FF0E9C40354F8C0F0C0E0120DDAAA
:2004E500D0F0540745F0D0F0120C6974052CFAE43DFB8E07A9238A828B838FF0E9120C693B
:2005050074042CFAE43DFB8E078A828B838FF0120DDA54F8120C6974062CFAE43DFB8E07D1
:200525008A828B838FF0120DDA54FE120C6974062CFAE43DFB8E078A828B838FF0120DDA68
:2005450054F9120C6974062CFAE43DFB8E07E52525E0240EF98A828B838FF0C40354F8C0CB
:20056500F0C0E0120DDAD0F0540745F0D0F0120C6974072CFAE43DFB8E078A828B838FF06B
:20058500120DDA54FC120C6974072CFAE43DFB8E078A828B838FF0120DDA54F34404120CF5
:2005A5006974072CFAE43DFB8E078A828B838FF0120DDA4410120C6974072CFAE43DFB8EC3
:2005C500078A828B838FF0120DDA54DF120C6974072CFCE43DFD8C828D838EF0120DDA5419
:2005E5003F120C6974FF251F400BAE1CAF1D8FD5851CD48009AE1CAF1D8FD3851CD2AF1FFD
:200605008FF005F07401800225E0D5F0FBFF741F5FF5D600000000000000000000000000E9
:200625000000000000000000000000000000000000000000000000000000000000000000B5
:20064500AEA84306808EA8AEB87F004306018EB853C0FEE5257008AE864306408E8622AE97
:20066500F84306408EF822858225AC1CAD1DAE1E74012520F526E43521F527852228AF27F2
:200685008F008C828D838EF0E8120C6974012CF529E43DF52A8E2BA926852982852A83854D
:2006A5002BF0E9120C6974022CFAE43DFB8E078A828B838FF074DF120C6974032CFAE43D2C
:2006C500FB8E07E525700578C1F9800478F979008A828B838FF0E8120C6974042CFAE43D9F
:2006E500FB8E07E52324FFE52434FFF853001F8A828B838FF0E8C40354F8C0F0C0E0120D91
:20070500DAD0F0540745F0D0F0120C6974052CFAE43DFB8E07A923198A828B838FF0E9129A
:200725000C6974042CFAE43DFB8E078A828B838FF0120DDA54F8120C6974062CFAE43DFBCF
:200745008E078A828B838FF0120DDA54FE120C6974062CFAE43DFB8E078A828B838FF01298
:200765000DDA54F9120C6974062CFAE43DFB8E07E52525E0240FF98A828B838FF0C4035479
:20078500F8C0F0C0E0120DDAD0F0540745F0D0F0120C6974072CFAE43DFB8E078A828B8310
:2007A5008FF0120DDA54FC4401120C6974072CFAE43DFB8E078A828B838FF0120DDA54F375
:2007C500120C6974072CFAE43DFB8E078A828B838FF0120DDA4410120C6974072CFAE43D0C
:2007E500FB8E078A828B838FF0120DDA54DF120C6974072CFCE43DFD8C828D838EF0120D9C
:20080500DA543F120C6974FF251F400BAE1CAF1D8FD5851CD48009AE1CAF1D8FD3851CD27A
:20082500AF1F8FF005F07401800225E0D5F0FBFF741F5FF5D60000000000000000000000F9
:20084500000000000000000000000000000000000000000000000000000000000000000093
:200865000000AEA84306808EA8AEB87F004306018EB853C0FEE5257012AD20AE21AF228D12
:1D088500828E838FF0120DDAF5C122AD20AE21AF228D828E838FF0120DDAF5F9225E
:2008A200AF82BF0120E51C700E53F1FEAEF343063C8EF353F4C32253F1FDAEF343063C8E9C
:2008C200F353F40F22E51C7012AEF14306018EF1AEF443063C8EF453F3C322AEF143060202
:2008E2008EF1AEF34306F08EF353F3C322AF8253C680ADC67E00ED20E6F8ADBE4305048D07
:20090200BE8FC274E055C5451CF5C522AD82AE83AFF08D028E038F048A828B838CF0120DB4
:20092200DA30E003020A20AB864303808B8674FE55C4FC8D018E028F0389828A838BF012B8
:200942000DDA0354014CF5C474FD55C4FC8D018E028F0389828A838BF0120DDA0303540134
:2009620025E04CF5C474FB55C4FC8D018E028F0389828A838BF0120DDAC423540125E02545
:20098200E04CF5C474F755C4FC8D018E028F0389828A838BF0120DDAC45401C40354F84C3C
:2009A200F5C474EF55C4FC8D018E028F0389828A838BF0120DDAC4035401C454F04CF5C49F
:2009C20074DF55C4FC8D018E028F0389828A838BF0120DDA23235401C42354E04CF5C47442
:2009E200BF55C4FC8D018E028F0389828A838BF0120DDA235401030354C04CF5C474DF55A6
:200A0200C5FC74012DF9E43EFA8F0389828A838BF0120DDA5401C42354E04CF5C522ABF803
:200A22004303808BF874FE55FBFC8D018E028F0389828A838BF0120DDA0354014CF5FB7469
:200A4200FD55FBFC8D018E028F0389828A838BF0120DDA0303540125E04CF5FB74FB55FBB4
:200A6200FC8D018E028F0389828A838BF0120DDAC423540125E025E04CF5FB74F755FBFC03
:200A82008D018E028F0389828A838BF0120DDAC45401C40354F84CF5FB74EF55FBFC8D0173
:200AA2008E028F0389828A838BF0120DDAC4035401C454F04CF5FB74DF55FBFC8D018E0269
:200AC2008F0389828A838BF0120DDA23235401C42354E04CF5FB74BF55FBFC8D018E028FD8
:200AE2000389828A838BF0120DDA235401030354C0F94CF5FB74DF55FCFC0DBD00010E8D98
:120B0200828E838FF0120DDA5401C42354E04CF5FC2207
:200B140085821C85831D85F01EE51C451D700122E4F51FF520900401E0F9A3E0FA78017C03
:200B340004E94A6025AB1CAF1DC3E99BEA9F501A891F8A20740229FEE43AFF8E008F048E5D
:200B5400828F83E0F9A3E0FA80D789068A07AB1CAD1DEB24FEFBED34FFFD8B018D027402D9
:200B740029FBE43AFD8B828D83EEF0EFA3F088828C83E9F0EAA3F089828A83E0F8A3E0FCC7
:200B9400EEB50033EFB5042F88828C83A3A3E0FEA3E0FF8B828D83EEF0EFA3F089828A8340
:200BB400E0FEA3E0FF8E828F83E0FEA3E0FF89828A83EEF0EFA3F0E51F45206042851F8296
:200BD400852083E0FEA3E0FFEEB50133EFB5022F89828A83E0F9A3E0FA851F82852083E928
:200BF400F0EAA3F07402251FFEE43520FF8B828D83E0FBA3E0FD8E828F83EBF0EDA3F0226D
:06004800E478FFF6D8FD8C
:200C1400AD82AE83AFF08D218E228F23851C24851D25851E26A81FA9208803890418B8FFE5
:200C34000119EB4C60258524828525838526F0120DDAFCA38582248583258D828E838FF048
:150C5400EC120C69A3AD82AE8380CE8521828522838523F022BB
:200026007900E94400601B7A00900DFC7803759304E493F2A308B800020593D9F4DAF2758B
:0200460093FF26
:1B0C690020F71130F6138883A88220F509F6A8837583002280FEF280F5F0228A
:200C84009004017401F07400A3F0900DFAE493FE740193FF1EBEFF011FEE2401FEEF34000D
:200CA400FF900001EEF0EFA3F0900003E4F0A3F022858214858315900401E0F5F0A3E045CA
:200CC400F07003120C84E5144515601274022514FCE43515FDC3EC9514ED9515500490009D
:200CE400002274022514F514E43515F515C3E5149404E515940050067514047515009004FB
:200D040001E0FCA3E0FD7A017B04EC4D7003020DD68C828D83E0F8A3E0F9880689078C1AB1
:200D24008D1BEEC3951AF516EF951BF517C3E5169514E51795155003020DBF74042514FE14
:200D4400E43515FFC3E5169EE5179F404EE514251AFEE515351BFF8E188F19851882851953
:200D640083E8F0E9A3F074022518F8E43519F98C828D83A3A3E0FEA3E0FF88828983EEF00A
:200D8400EFA3F08A828B83E518F0E519A3F08C828D83E518F0E519A3F080148C828D83A344
:200DA400A3E0FEA3E0FF8A828B83EEF0EFA3F074022CFEE43DFF8E828F832274022CFEE42A
:160DC4003DFF8E028F038E828F83E0FCA3E0FD020D0E900000226E
:20004E007800E84400600A7901759300E4F309D8FC7802E84404600C7905900001E4F0A3B2
:04006E00D8FCD9FAE7
:0D00190075812B120DF6E5826003020016C2
:1C0DDA0020F71430F6148883A88220F507E6A88375830022E280F7E49322E02228
:040DF60075820022E0
:00000001FF
